:100000000C942A000C9400000C9400000C94000046
:100010000C9400000C9400000C9400000C94000060
:100020000C9400000C9400000C9400000C94000050
:100030000C9400000C9400000C9400000C94000040
:100040000C9400000C9400000C9400000C94000030
:100050000C94000008E01FE51DBF0EBFBB240C94EC
:100060003F00000000000000000000000000000051
:100070006E00000000000100000001000000DF939E
:10008000CF93B5E0BF92BA9509F0FCCFCDB7DEB7FC
:100090000BE3112724E0F80131914D814B1509F450
:1000A00002C0322B02C020953223F801319301E0C7
:1000B0002AE330E0F9010193DF93CF93B6E0BF92DA
:1000C000BA9509F0FCCFCDB7DEB70EE7112722278E
:1000D00033271C830B8300E61127442755271A83F7
:1000E0000983BB2717FDB0952B2F3B2F442755279E
:1000F00088279927BB2757FDB0956B2F7B2F040FBF
:10010000151F261F371F4427552788279927BB27E8
:1001100057FDB0956B2F7B2F040F151F261F371F20
:100120001E830D831EC09E012F5F3F4FF901019179
:100130001191F901B081BF5FB193B081BF4FB1930D
:10014000AE014D5F5F4FFA0121913191FA01B0810B
:10015000BF5FB193B081BF4FB193F9012591F80111
:10016000219309811A812D813E81021713070CF416
:10017000DACF2696BFB7F894DEBFBFBFCDBFCF9111
:10018000DF910D81B1E00B270D830BE3112724E0F4
:10019000F80131914D814B1509F402C0322B02C098
:1001A00020953223F8013193BC82BB82BA82B98296
:1001B00009811A812B813C81B0E10B17B7E21B0743
:1001C0002B053B050CF011C08E010F5F1F4FF8018E
:1001D000B081BF5FB193B081BF4FB193B081BF4FCA
:1001E000B193B081BF4FB193E3CFCBCF2596BFB7CB
:1001F000F894DEBFBFBFCDBFCF91DF910895DF93ED
:10020000CF93B6E0BF92BA9509F0FCCFCDB7DEB779
:100210000EE71127222733271C830B8300E61127C3
:10022000442755271A830983BB2717FDB0952B2F29
:100230003B2F4427552788279927BB2757FDB09583
:100240006B2F7B2F040F151F261F371F44275527A1
:1002500088279927BB2757FDB0956B2F7B2F040F5D
:10026000151F261F371F1E830D831EC09E012F5F83
:100270003F4FF90101911191F901B081BF5FB19335
:10028000B081BF4FB193AE014D5F5F4FFA01219135
:100290003191FA01B081BF5FB193B081BF4FB1938B
:1002A000F9012591F801219309811A812D813E815F
:1002B000021713070CF4DACF2696BFB7F894DEBF07
:1002C000BFBFCDBFCF91DF910895DF93CF93CDB75F
:1002D000DEB70D81BAE20B1709F409C0BFE20B17B4
:1002E00009F42AC0B5E20B1709F426C06EC05A847F
:1002F0006B847C848D844E815F8168857985579E6F
:10030000302D569E202D310D549E002D112D559EC1
:10031000100D211D3B1D649E100D211D3B1D659E72
:10032000200D311D669E300D749E200D311D759E71
:10033000300D849E300D49C05A846B847C848D843A
:100340004E815F8168857985382C472E332042F4B1
:1003500050946094709480945B1C6B1C7B1C8B1C71
:10036000442042F440955095609570954B1D5B1D5F
:100370006B1D7B1D002711272227332780E2550C98
:10038000661C771C881C001F111F221F331F0417B7
:1003900015072607370728F0041B150B260B370B0C
:1003A00053948A9561F78D81853229F0052D162D9C
:1003B000272D382D3424332042F4009510952095B4
:1003C00030950B1D1B1D2B1D3B1DCF91DF910895FB
:1003D000DF93CF93CDB7DEB700271127CF91DF9101
:1003E0000895DF93CF93CDB7DEB700271127CF91C4
:1003F000DF910895DF93CF93CDB7DEB7CF91DF9133
:100400000895DF93CF93CDB7DEB70027CF91DF916B
:100410000895DF93CF93CDB7DEB700271127CF9193
:10042000DF910895DF93CF93CDB7DEB70027CF914B
:04043000DF910895BB
:00000001FF
